S01700004763634170706C69636174696F6E392E7372656353
S11300000C9430000C944D000C944D000C944D0055
S11300100C944D000C944D000C944D000C944D0028
S11300200C944D000C944D000C944D000C944D0018
S11300300C944D000C944D000C944D000C944D0008
S11300400C944D000C944D000C944D000C944D00F8
S11300500C944D006364696E6F70737578585B001F
S113006011241FBECFE5D8E0DEBFCDBF11E0A0E66E
S1130070B0E0ECE8FAE102C005900D92AC31B107B2
S1130080D9F721E0ACE1B1E001C01D92A235B2077D
S1130090E1F70E9459040C94440D0C9400005D9BFC
S11300A0FECF8CB908955F9BFECF8CB1089530EFDD
S11300B02FEF9FEE6FED5FEB4FE73ABB2BBB8BB39C
S11300C08F708BBB000089B38F70809321018F30B8
S11300D0B1F7E7E8F3E13197F1F700C0000089B325
S11300E08F70809321018F30A1F3EFE0F7E2319715
S11300F0F1F700C0000089B38F70809321018F3025
S113010041F39BBB000089B38F70809321018F3032
S113011019F01092220124C06BBB000089B38F70C8
S1130120809321018F3021F081E08093220118C057
S11301305BBB000089B38F70809321018F3021F065
S113014082E0809322010CC04BBB000089B38F7006
S1130150809321018F3009F4B0CF83E08093220192
S1130160809121018E3059F4E0912201F0E0EE0FEC
S1130170FF1FEE0FFF1FEA59FF4F808108958D3056
S113018059F4E0912201F0E0EE0FFF1FEE0FFF1F84
S1130190EA59FF4F818108958B3059F4E09122018F
S11301A0F0E0EE0FFF1FEE0FFF1FEA59FF4F8281B1
S11301B00895E0912201F0E0EE0FFF1FEE0FFF1F04
S11301C0EA59FF4F83810895672B09F09FC0009778
S11301D011F4D89808958130910511F4D9980895AF
S11301E08230910511F4DA9808958330910511F461
S11301F0DB9808958430910511F4DC9808958530D6
S1130200910511F4DD9808958630910511F4DE9876
S113021008958730910511F4DF9808958A30910587
S113022011F4C09808958B30910511F4C198089584
S11302308C30910511F4C29808958D30910511F414
S1130240C39808958E30910511F4C49808958F30A1
S1130250910511F4C59808958031910511F4C6985B
S113026008958131910511F4C79808958431910559
S113027011F4A89808958531910511F4A998089569
S11302808631910511F4AA9808958731910511F4E6
S1130290AB9808958831910511F4AC98089589318B
S11302A0910511F4AD9808958A31910511F4AE9831
S11302B008958B31910511F4AF9808958E3191050D
S11302C011F4909808958F31910511F4919808953F
S11302D08032910511F4929808958132910511F4B8
S11302E0939808958232910511F494980895833275
S11302F0910511F4959808958432910511F4969816
S11303000895859709F09FC097980895009711F470
S1130310D89A08958130910511F4D99A08958230BC
S1130320910511F4DA9A08958330910511F4DB9A5A
S113033008958430910511F4DC9A0895853091056F
S113034011F4DD9A08958630910511F4DE9A08952A
S11303508730910511F4DF9A08958A30910511F4DC
S1130360C09A08958B30910511F4C19A08958C3088
S1130370910511F4C29A08958D30910511F4C39A30
S113038008958E30910511F4C49A08958F30910523
S113039011F4C59A08958031910511F4C69A08950F
S11303A08131910511F4C79A08958431910511F4AE
S11303B0A89A08958531910511F4A99A0895863172
S11303C0910511F4AA9A08958731910511F4AB9A15
S11303D008958831910511F4AC9A089589319105F5
S11303E011F4AD9A08958A31910511F4AE9A0895E5
S11303F08B31910511F4AF9A08958E31910511F462
S1130400909A08958F31910511F4919A089580324C
S1130410910511F4929A08958132910511F4939AF9
S113042008958232910511F4949A089583329105C6
S113043011F4959A08958432910511F4969A0895C9
S1130440859709F4979A0895CF93C82F80FF07C022
S113045061E070E088E190E00E94E40006C060E0A2
S113046070E088E190E00E94E400C1FF07C061E011
S113047070E089E190E00E94E40006C060E070E072
S113048089E190E00E94E400C2FF07C061E070E0EF
S11304908AE190E00E94E40006C060E070E08AE136
S11304A090E00E94E400C3FF07C061E070E08BE1CC
S11304B090E00E94E40006C060E070E08BE190E010
S11304C00E94E400CF910895CF93C82F60E070E0BC
S11304D084E190E00E94E4008C2F0E94240261E0F9
S11304E070E086E190E00E94E40089EF90E00197DB
S11304F0F1F700C0000060E070E086E190E00E9447
S1130500E40089EF90E00197F1F700C00000CF917B
S1130510089580E00E94640281E00E9464020895CC
S1130520CF93C62F813059F480E8860F82958F705F
S11305300E9464028C2F8F700E9464020CC082306F
S113054051F480EC860F82958F700E9464028C2F88
S11305508F700E946402CF91089580E00E9424026B
S113056087E893E10197F1F700C0000083E00E945F
S1130570640281EE94E00197F1F700C0000083E08B
S11305800E9464028DEB9AE00197F1F700C000002D
S113059083E00E94640282E00E94640282E00E947E
S11305A0640288E00E94640280E00E9464028CE09D
S11305B00E94640280E00E94640286E00E94640259
S11305C00895CF93C82F61E070E084E190E00E9429
S11305D0E4008C2F82958F700E94240261E070E009
S11305E086E190E00E94E40089EF90E00197F1F742
S11305F000C0000060E070E086E190E00E94E4004A
S113060089EF90E00197F1F700C000008C2F8F7004
S11306100E94240261E070E086E190E00E94E40020
S113062089EF90E00197F1F700C0000060E070E00E
S113063086E190E00E94E40089EF90E00197F1F7F1
S113064000C00000CF910895CF93DF93EC0188811F
S1130650882331F021960E94E10289918111FBCF18
S1130660DF91CF91089582E08BB988E18AB986E859
S113067080BD10BC8CE089B908951F93CF93DF939C
S1130680D82FC0E00E945700EC2FF0E0E15DFE4F50
S113069080838A32D9F0833229F0CF5F8AE20E94C4
S11306A0E10211C0C1110FC0EDCFC1501C2F1D0FAD
S11306B0612F82E00E94900280E20E94E102612F99
S11306C082E00E949002C430E8F203C0CC23D1F24D
S11306D0ECCFDF91CF911F910895CF93DF9300D09A
S11306E000D01F92CDB7DEB785E0E6E8F0E0DE018A
S11306F0119601900D928A95E1F70E94890261E0BA
S113070081E00E94900286E790E00E94240360E06A
S113071082E00E94900280E00E943D0390912F01AC
S1130720898198130FC0E0E3F1E0DE01129623E320
S113073031E091918D91981307C0E217F307C9F73F
S113074081E003C080E001C080E00F900F900F9023
S11307500F900F90DF91CF910895809133018230F3
S1130760F9F460E00E9490028CE790E00E94240378
S113077089E00E943D0390912F0180911C01981300
S113078011C0E0E3F1E0ADE1B1E023E331E09191A8
S11307908D91981309C0E217F307C9F781E0089512
S11307A081E0089580E0089580E00895EF92FF923B
S11307B00F931F93CF93DF9360E082E00E94900237
S11307C08BE890E00E94240360E082E00E949002A3
S11307D08CE990E00E9424038DE280932301C1E020
S11307E003E211E00F2EFDE2FF2EF02D0F2EFBE2AF
S11307F0EF2EF02D0E94570090ED980F9A3048F498
S1130800EC2FF0E0ED5DFE4F80830E94E102CF5FAC
S1130810F1CFC13079F4833229F4F801E0820E94E7
S1130820E102E8CF813429F5E3E2F1E080E380835B
S1130830118223C0813431F4EC2FF0E0ED5DFE4FE2
S113084010821BC08A32B1F6DFEFDC0F21F4F8010D
S1130850F082C1E0CFCFCB5F6C2F82E00E94900288
S113086080E20E94E1026C2F82E00E949002CD2F70
S1130870C1CF8A3209F0BECFEACFDF91CF911F9169
S11308800F91FF90EF900895809123018B3271F0C6
S113089084E291E00E94570521E040912D0150919E
S11308A02E01841795071CF020E001C021E0822F5F
S11308B0089580E884BF84BF8FEF84BB60E875E24D
S11308C080E090E00E9433030E94AD020E948902FE
S11308D060E070E08FE490E00E947D05C8E4D1E020
S11308E09B838A8363E570E080E090E00E947D054D
S11308F0998388830F2EFDE2AF2EF1E0BF2EF02DF9
S11309000F2EFCE1CF2EF1E0DF2EF02DC4E3D1E079
S11309100F2EF3E3EF2EF1E0FF2EF02D0F2EF3EB6D
S11309208F2EF0E09F2EF02D0F2EF9EB6F2EF0E0BE
S11309307F2EF02D03E211E00F2EF9EF4F2EF0E0A1
S11309405F2EF02D60E081E00E94900284EA90E046
S11309500E942403BF92AF92DF92CF92DF93CF9392
S1130960FF92EF929F928F920E94E505809133014E
S1130970EDB7FEB73A960FB6F894FEBF0FBEEDBFC3
S1130980843079F480E390E00E94DE050E948902BD
S113099060E082E00E9490028CEB90E00E942403CD
S11309A0D1CF833079F480E390E00E94DE050E9489
S11309B0890260E082E00E9490028BEC90E00E9449
S11309C02403C0CF0E94890260E081E00E9490026B
S11309D0CE010E94240380E20E94E10280912E0154
S11309E08F9380912D018F937F926F921F930F931A
S11309F00E94FB05C8010E9424030E94AD030F90CE
S1130A000F900F900F900F900F9081110FC080E303
S1130A1090E00E94DE050E94890260E082E00E946C
S1130A20900289ED90E00E9424038CCF0E94D603AB
S1130A300E944404882361F1F80180818B3299F487
S1130A400E946D0381110FC080E390E00E94DE05D7
S1130A500E94890260E082E00E94900289EE90E0A8
S1130A600E9424036FCF1F930F935F924F920E94B3
S1130A70C8050E94890260E082E00E9490028CEF27
S1130A8090E00E9424030F900F900F900F905ACF84
S1130A9080E390E00E94DE050E94890260E082E02B
S1130AA00E9490028BE091E00E9424034BCFFC0152
S1130AB088279927E89421912032E9F3293010F00E
S1130AC02E30C8F32B3241F02D3239F4689404C02F
S1130AD00E947505820F911D219120532A30C0F385
S1130AE01EF4909581959F4F08957AE0979F902DDD
S1130AF0879F802D910D112408950F931F93CF93F9
S1130B00DF93009731F46115710519F480E090E0EA
S1130B103AC08B01EC016EE070E081E090E00E944D
S1130B20AB0AFC01892B91F380E88383011511053D
S1130B3071F01387028781E8838380914801909143
S1130B404901892B21F4F0934901E093480120974E
S1130B50C9F0D187C08783818260838380914A01F1
S1130B6090914B01892B71F4F0934B01E0934A016E
S1130B7080914C0190914D01892B21F4F0934D010A
S1130B80E0934C01CF01DF91CF911F910F91089514
S1130B90A0E0B0E0EEECF5E00C941D0DAE014B5F6F
S1130BA05F4FFA0161917191AF0180914A01909177
S1130BB04B010E941D06E2E00C94390D60914A013C
S1130BC070914B010E94570C0895A0E0B0E0EBEE49
S1130BD0F5E00C941D0DAE014B5F5F4FFA0161917E
S1130BE07191AF0180914801909149010E949A0945
S1130BF0E2E00C94390DAEE0B0E0E1E0F6E00C94F4
S1130C001B0D0D891E8986E08C831A8309838FEF5F
S1130C109FE79E838D83AE01475E5F4F6F89788D1A
S1130C20CE0101960E941D06EF81F885E00FF11FA9
S1130C3010822E96E4E00C94370DABE0B0E0E3E2D2
S1130C40F6E00C940D0D6C017B018A01FC01178206
S1130C501682838181FFCCC1CE0101963C01F6014D
S1130C609381F70193FD859193FF81917F018823FF
S1130C7009F4BAC1853239F493FD859193FF8191CA
S1130C807F01853229F4B60190E00E94570CE7CF2A
S1130C90912C212C312CFFE1F315D8F08B3279F013
S1130CA038F4803279F08332A1F4232D20611DC001
S1130CB08D3261F0803369F4232D216016C0832DB9
S1130CC08260382EE32DE4603E2E2AC0F32DF860B6
S1130CD01DC037FC2DC020ED280F2A3040F08E3285
S1130CE0B9F436FC81C1232D2064322E19C036FE9E
S1130CF006C08AE0989E200D1124922E11C0EAE0CD
S1130D002E9E200D1124222EF32DF0623F2E08C0BA
S1130D108C3621F4832D8068382E02C0883641F445
S1130D20F70193FD859193FF81917F018111B3CFE9
S1130D30982F9F7D9554933028F40C5F1F4F9FE3A9
S1130D4099830DC0833631F0833771F0833509F010
S1130D5059C021C0F801808189830E5F1F4F882408
S1130D608394912C530113C02801F2E04F0E511CBF
S1130D70F801A080B18036FE03C0692D70E002C086
S1130D806FEF7FEFC5010E940E0C4C018201F32D21
S1130D90FF773F2E16C0280122E0420E511CF801B5
S1130DA0A080B18036FE03C0692D70E002C06FEFF1
S1130DB07FEFC5010E94FC0B4C01F32DF0683F2E20
S1130DC0820133FC1BC0822D90E088169906B0F492
S1130DD0B60180E290E00E94570C2A94F4CFF5010A
S1130DE037FC859137FE81915F01B60190E00E9446
S1130DF0570C21102A9421E0821A9108811491043D
S1130E0071F7E8C0843611F0893641F5F80137FEF0
S1130E1007C060817181828193810C5F1F4F08C07C
S1130E2060817181072E000C880B990B0E5F1F4F98
S1130E30F32DFF763F2E97FF09C09095809570950E
S1130E4061957F4F8F4F9F4FF0683F2E2AE030E02F
S1130E50A3010E94AC0C882E861845C0853731F456
S1130E60232D2F7EB22E2AE030E025C0932D997FCA
S1130E70B92E8F36C1F018F4883579F0B5C08037B3
S1130E8019F0883721F0B0C0E92FE061BE2EB4FE1E
S1130E900DC0FB2DF460BF2E09C034FE0AC0292FFB
S1130EA02660B22E06C028E030E005C020E130E024
S1130EB002C020E132E0F801B7FE07C06081718111
S1130EC0828193810C5F1F4F06C06081718180E035
S1130ED090E00E5F1F4FA3010E94AC0C882E861871
S1130EE0FB2DFF773F2E36FE0DC0232D2E7FA22E25
S1130EF0891458F434FE0BC032FC09C0832D8E7E55
S1130F00A82E05C0B82CA32C03C0B82C01C0B92C42
S1130F10A4FE0FC0FE01E80DF11D8081803321F491
S1130F209A2D997EA92E09C0A2FE06C0B394B3944B
S1130F3004C08A2D867809F0B394A3FC11C0A0FEE6
S1130F4006C0B21488F4280C922C9B180EC0B2145C
S1130F5060F4B60180E290E00E94570CB394F7CF9E
S1130F60B21418F42B1802C0982C212CA4FE10C023
S1130F70B60180E390E00E94570CA2FE17C0A1FCCA
S1130F8003C088E790E002C088E590E0B6010CC099
S1130F908A2D867859F0A1FE02C08BE201C080E25E
S1130FA0A7FC8DE2B60190E00E94570C891438F436
S1130FB0B60180E390E00E94570C9A94F7CF8A948C
S1130FC0F301E80DF11D8081B60190E00E94570CF9
S1130FD08110F5CF222009F442CEB60180E290E0E0
S1130FE00E94570C2A94F6CFF6018681978102C09D
S1130FF08FEF9FEF2B96E2E10C94290D20FD09C0A1
S1131000FC0123FD05C022FF02C073836283518368
S11310104083089544FD17C046FD17C0AB01BC01D1
S1131020DA01FB01AA0FBB1FEE1FFF1F1094D1F7BB
S11310304A0F5B1F6E1F7F1FCB01BA01660F771F1C
S1131040881F991F09C033E001C034E0660F771F81
S1131050881F991F3150D1F7620F711D811D911D99
S113106008950F931F93CF93DF938C01C8010E94BF
S1131070190CEC0197FD08C00E94E80B892BB1F70D
S1131080B801CE010E94930CCE01DF91CF911F9144
S11310900F9108958F929F92AF92BF92EF92FF9219
S11310A00F931F93CF93DF938C01D62F7A01B22E27
S11310B00E94190C9C0133272B32310531F02D325B
S11310C0310561F48B2D8068B82ED15011F480E085
S11310D068C0C8010E94190C97FDF9CFCB2DCD7FB4
S11310E02B2D207309F58033F9F4AA24AA94AD0EAC
S11310F009F443C0C8010E94190C97FD3EC09C012D
S11311002F7D33272835310549F4C264D250A9F123
S1131110C8010E94190C97FF07C02FC0B6FE02C079
S1131120C26001C0C261DA2D812C912C540120EDE2
S1131130280F283080F0C4FF04C0B8010E94930C2B
S113114019C02A3040F0C6FFF8CF2F7D3FEE320F92
S1131150363098F727504C2FC501B4010E940A0875
S11311604B015C01C260D15059F0C8010E94190CB6
S113117097FFDDCFC1FD04C0AACF812C912C54016F
S1131180C7FF08C0B094A09490948094811C911CD3
S1131190A11CB11C2C2FB501A401C7010E94FE079C
S11311A081E0DF91CF911F910F91FF90EF90BF905D
S11311B0AF909F908F900895A0E2B0E0E2EEF8E047
S11311C00C94100D5C01962E7A01F9018E010F5FCB
S11311D01F4F680180E2D8011D928A95E9F7D50175
S11311E013968C9080E090E0612C712C30E061E0EB
S11311F070E083FC259183FE21918F01522E2111F1
S113120003C080E090E092C02E3511F4009751F1B4
S1131210432F50E0481759073CF42D3559F12D322E
S113122019F4772009F103C0772009F46AC0452D29
S1131230469546954695D601A40FB11D452D477098
S11312408B0102C0000F111F4A95E2F7A8015C91BF
S1131250452B4C93651459F0561410F45394E7CF6E
S11312605A94E5CF31E004C07724739401C0712C03
S11312700196BFCF772019F08E8180628E83311161
S113128003C08824839417C0F6019E012F5D3F4F4D
S11312908081809581932E173F07D1F7F2CFE11417
S11312A0F10429F0D7018C93F70131967F019A94C8
S11312B0812C9920F9F0C5010E94190C97FD18C0E2
S11312C0FC01FF2723E0F595E7952A95E1F7EC0D5E
S11312D0FD1D208130E0AC014770552702C03595D3
S11312E027954A95E2F720FDDACFB5010E94930CC9
S11312F0811087CFE114F10411F0D7011C92C801C9
S113130015C0422F469546954695D601A40FB11DAA
S1131310422F47708B0102C0000F111F4A95E2F75C
S1131320A8015C91452B4C93622EA2CFA096EFE0CE
S11313300C942C0DA0E0B0E0E0EAF9E00C94100D60
S11313406C01EB015A01FC0117821682512CF60143
S1131350E380FE01E3FC8591E3FE8191182FEF0108
S1131360882309F4EEC090E00E94E80B892B21F059
S1131370C6010E943108EBCF153241F4FE01E3FCB3
S11313801591E3FE1191EF01153281F4C6010E941B
S1131390190C97FDD4C0412F50E09C01332724172A
S11313A03507A9F2B6010E94930CCBC01A3239F466
S11313B0E3FC1591E3FE1191EF0101E001C000E0AF
S11313C0F12C20ED210F2A3080F402606F2D70E0A3
S11313D080E090E040E20E940A08F62EFE01E3FC61
S11313E01591E3FE1191EF01ECCF01FF03C0F11061
S11313F003C0A7C0FF24FA94183619F01C3651F024
S113140010C0FE01E3FC1591E3FE1191EF011836C3
S113141041F408600460FE01E3FC1591E3FE1191C0
S1131420EF01112309F48DC0612F70E084E590E091
S11314300E94F10B892B09F484C000FD07C0F5015B
S113144080809180C50102965C0102C0812C912CA0
S11314501E3651F4F6014681578160E070E0202F7A
S1131460C4010E94FE0773CF1336A9F401FD02C024
S1131470FF24F394C6010E94190C97FD60C08114E7
S1131480910429F0F4018083C40101964C01FA947B
S1131490F110F0CF50C01B3559F49E01A4016F2DFB
S11314A0C6010E94DC08EC01892B09F044C03EC04F
S11314B0C6010E94310897FD42C01F3661F128F42D
S11314C0143639F1193651F128C0133771F0153734
S11314D001F123C08114910429F0F4016082C40154
S11314E001964C01FA94FF2071F0C6010E94190C78
S11314F03C0197FD08C00E94E80B892B59F3B60103
S1131500C3010E94930C81149104A9F0F401108288
S113151012C0006203C0006101C00064202FA40156
S11315206F2DC6010E944A08811105C0F60183810E
S1131530807329F406C000FD0ACF539408CF5520C8
S113154019F0852D90E002C08FEF9FEFCDB7DEB785
S1131550EFE00C942C0D0F931F93CF93DF93869F92
S11315608001879F100D969F100D1124C8010E94C1
S1131570C70AEC01009729F0A80160E070E00E941E
S1131580070CCE01DF91CF911F910F9108950F9316
S11315901F93CF93DF938230910510F482E090E0A3
S11315A0E0915001F091510120E030E0A0E0B0E082
S11315B0309719F1408151810281138148175907ED
S11315C0C8F08417950769F4109731F012960C93BC
S11315D0129713961C9327C0009350011093510146
S11315E022C02115310519F04217530718F49A0146
S11315F0BD01EF01DF01F801DBCF21153105F9F061
S1131600281B390B2430310580F48A819B816115B4
S1131610710521F0FB019383828304C090935101EF
S113162080935001FE01329644C0FE01E20FF31F85
S11316308193919322503109398328833AC02091B0
S11316404E0130914F01232B41F4209162003091DF
S1131650630030934F0120934E012091600030913C
S113166061002115310541F42DB73EB74091640066
S113167050916500241B350BE0914E01F0914F0110
S1131680E217F307A0F42E1B3F0B2817390778F055
S1131690AC014E5F5F4F2417350748F04E0F5F1FB4
S11316A050934F0140934E018193919302C0E0E027
S11316B0F0E0CF01DF91CF911F910F910895CF9367
S11316C0DF93009709F481C0FC01329713821282E0
S11316D0A0915001B0915101109781F42081318182
S11316E0820F931F20914E0130914F012817390723
S11316F051F5F0934F01E0934E0167C0ED0120E0F6
S113170030E0CE17DF0740F44A815B819E0141152A
S11317105105F1F0EA01F5CFD383C28340815181B1
S1131720840F951FC817D90759F488819981840FAC
S1131730951F0296918380838A819B819383828300
S11317402115310529F4F0935101E09350013DC076
S1131750E901FB83EA8349915991C40FD51FEC1722
S1131760FD0761F480819181840F951F0296E90140
S113177099838883828193819B838A83E0E0F0E06C
S113178012968D919C911397009719F0FD01DC013D
S1131790F7CF8D919C9111979D012E5F3F4F820F42
S11317A0931F20914E0130914F012817390769F496
S11317B0309729F4109251011092500102C0138203
S11317C01282B0934F01A0934E01DF91CF910895FF
S11317D091110C940A0D803219F089508550C8F784
S11317E00895FC010590061621F00020D9F7C001E8
S11317F008953197CF010895FC0105906150704020
S11318000110D8F7809590958E0F9F1F0895DC01E5
S113181001C06D9341505040E0F70895FC016150C0
S1131820704001900110D8F7809590958E0F9F1FFE
S11318300895CF93DF93EC012B8120FF33C026FF63
S11318400AC02F7B2B838E819F8101969F838E8379
S11318508A8190E029C022FF0FC0E881F98180814C
S1131860082E000C990B009719F420622B831AC0E0
S11318703196F983E8830EC0EA85FB85099597FFC5
S113188009C02B81019611F080E201C080E1822B16
S11318908B8308C02E813F812F5F3F4F3F832E8370
S11318A0992702C08FEF9FEFDF91CF9108950F9397
S11318B01F93CF93DF93FB01238121FD03C08FEF9F
S11318C09FEF2CC022FF16C04681578124813581A9
S11318D04217530744F4A081B1819D012F5F3F4F0C
S11318E0318320838C93268137812F5F3F4F378349
S11318F0268314C08B01EC01FB010084F185E02DEB
S11319000995892BE1F6D80116968D919C9117972C
S1131910019617969C938E931697CE01DF91CF91E3
S11319201F910F910895FB01238120FF12C026FD12
S113193010C08F3F3FEF930761F082832F7D2064B7
S113194023832681378121503109378326839927C0
S113195008958FEF9FEF0895FA01AA27283051F1D7
S1131960203181F1E8946F936E7F6E5F7F4F8F4FCC
S11319709F4FAF4FB1E03ED0B4E03CD0670F781F2B
S1131980891F9A1FA11D680F791F8A1F911DA11D10
S11319906A0F711D811D911DA11D20D009F4689449
S11319A03F912AE0269F11243019305D3193DEF6F1
S11319B0CF010895462F4770405D4193B3E00FD0A7
S11319C0C9F7F6CF462F4F70405D4A3318F0495D92
S11319D031FD4052419302D0A9F7EACFB4E0A69575
S11319E09795879577956795BA95C9F70097610597
S11319F0710508959B01AC010A2E069457954795ED
S1131A0037952795BA95C9F7620F731F841F951FE1
S1131A10A01D08959927882708952F923F924F92E9
S1131A205F926F927F928F929F92AF92BF92CF926A
S1131A30DF92EF92FF920F931F93CF93DF93CDB773
S1131A40DEB7CA1BDB0B0FB6F894DEBF0FBECDBFEB
S1131A5009942A88398848885F846E847D848C84BC
S1131A609B84AA84B984C884DF80EE80FD800C81C5
S1131A701B81AA81B981CE0FD11D0FB6F894DEBFA8
S10F1A800FBECDBFED010895F894FFCF18
S1131A8C0000520120003134372A323538303336D5
S1131A9C3923414243444167656E7420506173732A
S1131AAC776F72643A0031323341002020202020B9
S1131ABC202020202020202020202000416D6F7524
S1131ACC6E743A00202050756E6368206120436167
S1131ADC7264002564257325732564002020496EE7
S1131AEC76616C6964205246494400202053455267
S1131AFC56455220444F574E002057726F6E672044
S1131B0C70617373776F7264002057726F6E672005
S1131B1C50617373776F726400257300204C61738A
S1131B2C743A2053756363656564004E6F74204585
S10F1B3C6E6F756768204D6F6E65790050
S9030000FC
